{
  "_format": "hh-sol-artifact-1",
  "contractName": "PulseAidBadge",
  "sourceName": "contracts/PulseAidBadge.sol",
  "abi": [
    {
      "inputs": [
        {
          "internalType": "address",
          "name": "initialOwner",
          "type": "address"
        }
      ],
      "stateMutability": "nonpayable",
      "type": "constructor"
    },
    {
      "inputs": [
        {
          "internalType": "address",
          "name": "sender",
          "type": "address"
        },
        {
          "internalType": "uint256",
          "name": "tokenId",
          "type": "uint256"
        },
        {
          "internalType": "address",
          "name": "owner",
          "type": "address"
        }
      ],
      "name": "ERC721IncorrectOwner",
      "type": "error"
    },
    {
      "inputs": [
        {
          "internalType": "address",
          "name": "operator",
          "type": "address"
        },
        {
          "internalType": "uint256",
          "name": "tokenId",
          "type": "uint256"
        }
      ],
      "name": "ERC721InsufficientApproval",
      "type": "error"
    },
    {
      "inputs": [
        {
          "internalType": "address",
          "name": "approver",
          "type": "address"
        }
      ],
      "name": "ERC721InvalidApprover",
      "type": "error"
    },
    {
      "inputs": [
        {
          "internalType": "address",
          "name": "operator",
          "type": "address"
        }
      ],
      "name": "ERC721InvalidOperator",
      "type": "error"
    },
    {
      "inputs": [
        {
          "internalType": "address",
          "name": "owner",
          "type": "address"
        }
      ],
      "name": "ERC721InvalidOwner",
      "type": "error"
    },
    {
      "inputs": [
        {
          "internalType": "address",
          "name": "receiver",
          "type": "address"
        }
      ],
      "name": "ERC721InvalidReceiver",
      "type": "error"
    },
    {
      "inputs": [
        {
          "internalType": "address",
          "name": "sender",
          "type": "address"
        }
      ],
      "name": "ERC721InvalidSender",
      "type": "error"
    },
    {
      "inputs": [
        {
          "internalType": "uint256",
          "name": "tokenId",
          "type": "uint256"
        }
      ],
      "name": "ERC721NonexistentToken",
      "type": "error"
    },
    {
      "inputs": [
        {
          "internalType": "address",
          "name": "owner",
          "type": "address"
        }
      ],
      "name": "OwnableInvalidOwner",
      "type": "error"
    },
    {
      "inputs": [
        {
          "internalType": "address",
          "name": "account",
          "type": "address"
        }
      ],
      "name": "OwnableUnauthorizedAccount",
      "type": "error"
    },
    {
      "anonymous": false,
      "inputs": [
        {
          "indexed": true,
          "internalType": "address",
          "name": "owner",
          "type": "address"
        },
        {
          "indexed": true,
          "internalType": "address",
          "name": "approved",
          "type": "address"
        },
        {
          "indexed": true,
          "internalType": "uint256",
          "name": "tokenId",
          "type": "uint256"
        }
      ],
      "name": "Approval",
      "type": "event"
    },
    {
      "anonymous": false,
      "inputs": [
        {
          "indexed": true,
          "internalType": "address",
          "name": "owner",
          "type": "address"
        },
        {
          "indexed": true,
          "internalType": "address",
          "name": "operator",
          "type": "address"
        },
        {
          "indexed": false,
          "internalType": "bool",
          "name": "approved",
          "type": "bool"
        }
      ],
      "name": "ApprovalForAll",
      "type": "event"
    },
    {
      "anonymous": false,
      "inputs": [
        {
          "indexed": true,
          "internalType": "address",
          "name": "previousOwner",
          "type": "address"
        },
        {
          "indexed": true,
          "internalType": "address",
          "name": "newOwner",
          "type": "address"
        }
      ],
      "name": "OwnershipTransferred",
      "type": "event"
    },
    {
      "anonymous": false,
      "inputs": [
        {
          "indexed": true,
          "internalType": "address",
          "name": "from",
          "type": "address"
        },
        {
          "indexed": true,
          "internalType": "address",
          "name": "to",
          "type": "address"
        },
        {
          "indexed": true,
          "internalType": "uint256",
          "name": "tokenId",
          "type": "uint256"
        }
      ],
      "name": "Transfer",
      "type": "event"
    },
    {
      "inputs": [
        {
          "internalType": "address",
          "name": "to",
          "type": "address"
        },
        {
          "internalType": "uint256",
          "name": "tokenId",
          "type": "uint256"
        }
      ],
      "name": "approve",
      "outputs": [],
      "stateMutability": "nonpayable",
      "type": "function"
    },
    {
      "inputs": [
        {
          "internalType": "uint256",
          "name": "",
          "type": "uint256"
        }
      ],
      "name": "badgeTypes",
      "outputs": [
        {
          "internalType": "uint8",
          "name": "",
          "type": "uint8"
        }
      ],
      "stateMutability": "view",
      "type": "function"
    },
    {
      "inputs": [
        {
          "internalType": "address",
          "name": "owner",
          "type": "address"
        }
      ],
      "name": "balanceOf",
      "outputs": [
        {
          "internalType": "uint256",
          "name": "",
          "type": "uint256"
        }
      ],
      "stateMutability": "view",
      "type": "function"
    },
    {
      "inputs": [
        {
          "internalType": "uint256",
          "name": "",
          "type": "uint256"
        }
      ],
      "name": "campaignIds",
      "outputs": [
        {
          "internalType": "uint256",
          "name": "",
          "type": "uint256"
        }
      ],
      "stateMutability": "view",
      "type": "function"
    },
    {
      "inputs": [
        {
          "internalType": "uint256",
          "name": "tokenId",
          "type": "uint256"
        }
      ],
      "name": "getApproved",
      "outputs": [
        {
          "internalType": "address",
          "name": "",
          "type": "address"
        }
      ],
      "stateMutability": "view",
      "type": "function"
    },
    {
      "inputs": [
        {
          "internalType": "address",
          "name": "owner",
          "type": "address"
        },
        {
          "internalType": "address",
          "name": "operator",
          "type": "address"
        }
      ],
      "name": "isApprovedForAll",
      "outputs": [
        {
          "internalType": "bool",
          "name": "",
          "type": "bool"
        }
      ],
      "stateMutability": "view",
      "type": "function"
    },
    {
      "inputs": [
        {
          "internalType": "address",
          "name": "to",
          "type": "address"
        },
        {
          "internalType": "uint256",
          "name": "campaignId",
          "type": "uint256"
        },
        {
          "internalType": "uint8",
          "name": "badgeType",
          "type": "uint8"
        }
      ],
      "name": "mintBadge",
      "outputs": [
        {
          "internalType": "uint256",
          "name": "",
          "type": "uint256"
        }
      ],
      "stateMutability": "nonpayable",
      "type": "function"
    },
    {
      "inputs": [],
      "name": "name",
      "outputs": [
        {
          "internalType": "string",
          "name": "",
          "type": "string"
        }
      ],
      "stateMutability": "view",
      "type": "function"
    },
    {
      "inputs": [],
      "name": "owner",
      "outputs": [
        {
          "internalType": "address",
          "name": "",
          "type": "address"
        }
      ],
      "stateMutability": "view",
      "type": "function"
    },
    {
      "inputs": [
        {
          "internalType": "uint256",
          "name": "tokenId",
          "type": "uint256"
        }
      ],
      "name": "ownerOf",
      "outputs": [
        {
          "internalType": "address",
          "name": "",
          "type": "address"
        }
      ],
      "stateMutability": "view",
      "type": "function"
    },
    {
      "inputs": [],
      "name": "renounceOwnership",
      "outputs": [],
      "stateMutability": "nonpayable",
      "type": "function"
    },
    {
      "inputs": [
        {
          "internalType": "address",
          "name": "from",
          "type": "address"
        },
        {
          "internalType": "address",
          "name": "to",
          "type": "address"
        },
        {
          "internalType": "uint256",
          "name": "tokenId",
          "type": "uint256"
        }
      ],
      "name": "safeTransferFrom",
      "outputs": [],
      "stateMutability": "nonpayable",
      "type": "function"
    },
    {
      "inputs": [
        {
          "internalType": "address",
          "name": "from",
          "type": "address"
        },
        {
          "internalType": "address",
          "name": "to",
          "type": "address"
        },
        {
          "internalType": "uint256",
          "name": "tokenId",
          "type": "uint256"
        },
        {
          "internalType": "bytes",
          "name": "data",
          "type": "bytes"
        }
      ],
      "name": "safeTransferFrom",
      "outputs": [],
      "stateMutability": "nonpayable",
      "type": "function"
    },
    {
      "inputs": [
        {
          "internalType": "address",
          "name": "operator",
          "type": "address"
        },
        {
          "internalType": "bool",
          "name": "approved",
          "type": "bool"
        }
      ],
      "name": "setApprovalForAll",
      "outputs": [],
      "stateMutability": "nonpayable",
      "type": "function"
    },
    {
      "inputs": [
        {
          "internalType": "string",
          "name": "newBase",
          "type": "string"
        }
      ],
      "name": "setBaseURI",
      "outputs": [],
      "stateMutability": "nonpayable",
      "type": "function"
    },
    {
      "inputs": [
        {
          "internalType": "bytes4",
          "name": "interfaceId",
          "type": "bytes4"
        }
      ],
      "name": "supportsInterface",
      "outputs": [
        {
          "internalType": "bool",
          "name": "",
          "type": "bool"
        }
      ],
      "stateMutability": "view",
      "type": "function"
    },
    {
      "inputs": [],
      "name": "symbol",
      "outputs": [
        {
          "internalType": "string",
          "name": "",
          "type": "string"
        }
      ],
      "stateMutability": "view",
      "type": "function"
    },
    {
      "inputs": [],
      "name": "tokenCount",
      "outputs": [
        {
          "internalType": "uint256",
          "name": "",
          "type": "uint256"
        }
      ],
      "stateMutability": "view",
      "type": "function"
    },
    {
      "inputs": [
        {
          "internalType": "uint256",
          "name": "tokenId",
          "type": "uint256"
        }
      ],
      "name": "tokenURI",
      "outputs": [
        {
          "internalType": "string",
          "name": "",
          "type": "string"
        }
      ],
      "stateMutability": "view",
      "type": "function"
    },
    {
      "inputs": [
        {
          "internalType": "address",
          "name": "from",
          "type": "address"
        },
        {
          "internalType": "address",
          "name": "to",
          "type": "address"
        },
        {
          "internalType": "uint256",
          "name": "tokenId",
          "type": "uint256"
        }
      ],
      "name": "transferFrom",
      "outputs": [],
      "stateMutability": "nonpayable",
      "type": "function"
    },
    {
      "inputs": [
        {
          "internalType": "address",
          "name": "newOwner",
          "type": "address"
        }
      ],
      "name": "transferOwnership",
      "outputs": [],
      "stateMutability": "nonpayable",
      "type": "function"
    }
  ],
  "bytecode": "0x60806040523480156200001157600080fd5b5060405162002e3a38038062002e3a8339818101604052810190620000379190620002cf565b806040518060400160405280600d81526020017f50756c73654169644261646765000000000000000000000000000000000000008152506040518060400160405280600381526020017f50414200000000000000000000000000000000000000000000000000000000008152508160009081620000b591906200057b565b508060019081620000c791906200057b565b505050600073ffffffffffffffffffffffffffffffffffffffff168173ffffffffffffffffffffffffffffffffffffffff16036200013f5760006040517f1e4fbdf700000000000000000000000000000000000000000000000000000000815260040162000136919062000673565b60405180910390fd5b62000150816200019f60201b60201c565b506040518060400160405280601681526020017f697066733a2f2f516d2e2e2e2f6d657461646174612f00000000000000000000815250600890816200019791906200057b565b505062000690565b6000600660009054906101000a900473ffffffffffffffffffffffffffffffffffffffff16905081600660006101000a81548173ffffffffffffffffffffffffffffffffffffffff021916908373ffffffffffffffffffffffffffffffffffffffff1602179055508173ffffffffffffffffffffffffffffffffffffffff168173ffffffffffffffffffffffffffffffffffffffff167f8be0079c531659141344cd1fd0a4f28419497f9722a3daafe3b4186f6b6457e060405160405180910390a35050565b600080fd5b600073ffffffffffffffffffffffffffffffffffffffff82169050919050565b600062000297826200026a565b9050919050565b620002a9816200028a565b8114620002b557600080fd5b50565b600081519050620002c9816200029e565b92915050565b600060208284031215620002e857620002e762000265565b5b6000620002f884828501620002b8565b91505092915050565b600081519050919050565b7f4e487b7100000000000000000000000000000000000000000000000000000000600052604160045260246000fd5b7f4e487b7100000000000000000000000000000000000000000000000000000000600052602260045260246000fd5b600060028204905060018216806200038357607f821691505b6020821081036200039957620003986200033b565b5b50919050565b60008190508160005260206000209050919050565b60006020601f8301049050919050565b600082821b905092915050565b600060088302620004037fffffffffffffffffffffffffffffffffffffffffffffffffffffffffffffffff82620003c4565b6200040f8683620003c4565b95508019841693508086168417925050509392505050565b6000819050919050565b6000819050919050565b60006200045c62000456620004508462000427565b62000431565b62000427565b9050919050565b6000819050919050565b62000478836200043b565b62000490620004878262000463565b848454620003d1565b825550505050565b600090565b620004a762000498565b620004b48184846200046d565b505050565b5b81811015620004dc57620004d06000826200049d565b600181019050620004ba565b5050565b601f8211156200052b57620004f5816200039f565b6200050084620003b4565b8101602085101562000510578190505b620005286200051f85620003b4565b830182620004b9565b50505b505050565b600082821c905092915050565b6000620005506000198460080262000530565b1980831691505092915050565b60006200056b83836200053d565b9150826002028217905092915050565b620005868262000301565b67ffffffffffffffff811115620005a257620005a16200030c565b5b620005ae82546200036a565b620005bb828285620004e0565b600060209050601f831160018114620005f35760008415620005de578287015190505b620005ea85826200055d565b8655506200065a565b601f19841662000603866200039f565b60005b828110156200062d5784890151825560018201915060208501945060208101905062000606565b868310156200064d578489015162000649601f8916826200053d565b8355505b6001600288020188555050505b505050505050565b6200066d816200028a565b82525050565b60006020820190506200068a600083018462000662565b92915050565b61279a80620006a06000396000f3fe608060405234801561001057600080fd5b50600436106101375760003560e01c8063715018a6116100b8578063ae9abb7b1161007c578063ae9abb7b1461033a578063b369359d1461036a578063b88d4fde1461039a578063c87b56dd146103b6578063e985e9c5146103e6578063f2fde38b1461041657610137565b8063715018a6146102ba5780638da5cb5b146102c457806395d89b41146102e25780639f181b5e14610300578063a22cb4651461031e57610137565b806342842e0e116100ff57806342842e0e146101f2578063505d930c1461020e57806355f804b31461023e5780636352211e1461025a57806370a082311461028a57610137565b806301ffc9a71461013c57806306fdde031461016c578063081812fc1461018a578063095ea7b3146101ba57806323b872dd146101d6575b600080fd5b61015660048036038101906101519190611b2b565b610432565b6040516101639190611b73565b60405180910390f35b610174610514565b6040516101819190611c1e565b60405180910390f35b6101a4600480360381019061019f9190611c76565b6105a6565b6040516101b19190611ce4565b60405180910390f35b6101d460048036038101906101cf9190611d2b565b6105c2565b005b6101f060048036038101906101eb9190611d6b565b6105d8565b005b61020c60048036038101906102079190611d6b565b6106da565b005b61022860048036038101906102239190611df7565b6106fa565b6040516102359190611e59565b60405180910390f35b61025860048036038101906102539190611ed9565b6107c4565b005b610274600480360381019061026f9190611c76565b6107e2565b6040516102819190611ce4565b60405180910390f35b6102a4600480360381019061029f9190611f26565b6107f4565b6040516102b19190611e59565b60405180910390f35b6102c26108ae565b005b6102cc6108c2565b6040516102d99190611ce4565b60405180910390f35b6102ea6108ec565b6040516102f79190611c1e565b60405180910390f35b61030861097e565b6040516103159190611e59565b60405180910390f35b61033860048036038101906103339190611f7f565b610984565b005b610354600480360381019061034f9190611c76565b61099a565b6040516103619190611fce565b60405180910390f35b610384600480360381019061037f9190611c76565b6109ba565b6040516103919190611e59565b60405180910390f35b6103b460048036038101906103af9190612119565b6109d2565b005b6103d060048036038101906103cb9190611c76565b6109f7565b6040516103dd9190611c1e565b60405180910390f35b61040060048036038101906103fb919061219c565b610a60565b60405161040d9190611b73565b60405180910390f35b610430600480360381019061042b9190611f26565b610af4565b005b60007f80ac58cd000000000000000000000000000000000000000000000000000000007bffffffffffffffffffffffffffffffffffffffffffffffffffffffff1916827bffffffffffffffffffffffffffffffffffffffffffffffffffffffff191614806104fd57507f5b5e139f000000000000000000000000000000000000000000000000000000007bffffffffffffffffffffffffffffffffffffffffffffffffffffffff1916827bffffffffffffffffffffffffffffffffffffffffffffffffffffffff1916145b8061050d575061050c82610b7a565b5b9050919050565b6060600080546105239061220b565b80601f016020809104026020016040519081016040528092919081815260200182805461054f9061220b565b801561059c5780601f106105715761010080835404028352916020019161059c565b820191906000526020600020905b81548152906001019060200180831161057f57829003601f168201915b5050505050905090565b60006105b182610be4565b506105bb82610c6c565b9050919050565b6105d482826105cf610ca9565b610cb1565b5050565b600073ffffffffffffffffffffffffffffffffffffffff168273ffffffffffffffffffffffffffffffffffffffff160361064a5760006040517f64a0ae920000000000000000000000000000000000000000000000000000000081526004016106419190611ce4565b60405180910390fd5b600061065e8383610659610ca9565b610cc3565b90508373ffffffffffffffffffffffffffffffffffffffff168173ffffffffffffffffffffffffffffffffffffffff16146106d4578382826040517f64283d7b0000000000000000000000000000000000000000000000000000000081526004016106cb9392919061223c565b60405180910390fd5b50505050565b6106f5838383604051806020016040528060008152506109d2565b505050565b6000610704610edd565b60028260ff161061074a576040517f08c379a0000000000000000000000000000000000000000000000000000000008152600401610741906122bf565b60405180910390fd5b60016007600082825461075d919061230e565b92505081905550600060075490506107758582610f64565b83600960008381526020019081526020016000208190555082600a600083815260200190815260200160002060006101000a81548160ff021916908360ff160217905550809150509392505050565b6107cc610edd565b8181600891826107dd9291906124f9565b505050565b60006107ed82610be4565b9050919050565b60008073ffffffffffffffffffffffffffffffffffffffff168273ffffffffffffffffffffffffffffffffffffffff16036108675760006040517f89c62b6400000000000000000000000000000000000000000000000000000000815260040161085e9190611ce4565b60405180910390fd5b600360008373ffffffffffffffffffffffffffffffffffffffff1673ffffffffffffffffffffffffffffffffffffffff168152602001908152602001600020549050919050565b6108b6610edd565b6108c06000610f82565b565b6000600660009054906101000a900473ffffffffffffffffffffffffffffffffffffffff16905090565b6060600180546108fb9061220b565b80601f01602080910402602001604051908101604052809291908181526020018280546109279061220b565b80156109745780601f1061094957610100808354040283529160200191610974565b820191906000526020600020905b81548152906001019060200180831161095757829003601f168201915b5050505050905090565b60075481565b61099661098f610ca9565b8383611048565b5050565b600a6020528060005260406000206000915054906101000a900460ff1681565b60096020528060005260406000206000915090505481565b6109dd8484846105d8565b6109f16109e8610ca9565b858585856111b7565b50505050565b6060610a0282610be4565b506000610a0d611368565b90506000815111610a2d5760405180602001604052806000815250610a58565b80610a37846113fa565b604051602001610a48929190612605565b6040516020818303038152906040525b915050919050565b6000600560008473ffffffffffffffffffffffffffffffffffffffff1673ffffffffffffffffffffffffffffffffffffffff16815260200190815260200160002060008373ffffffffffffffffffffffffffffffffffffffff1673ffffffffffffffffffffffffffffffffffffffff16815260200190815260200160002060009054906101000a900460ff16905092915050565b610afc610edd565b600073ffffffffffffffffffffffffffffffffffffffff168173ffffffffffffffffffffffffffffffffffffffff1603610b6e5760006040517f1e4fbdf7000000000000000000000000000000000000000000000000000000008152600401610b659190611ce4565b60405180910390fd5b610b7781610f82565b50565b60007f01ffc9a7000000000000000000000000000000000000000000000000000000007bffffffffffffffffffffffffffffffffffffffffffffffffffffffff1916827bffffffffffffffffffffffffffffffffffffffffffffffffffffffff1916149050919050565b600080610bf0836114c8565b9050600073ffffffffffffffffffffffffffffffffffffffff168173ffffffffffffffffffffffffffffffffffffffff1603610c6357826040517f7e273289000000000000000000000000000000000000000000000000000000008152600401610c5a9190611e59565b60405180910390fd5b80915050919050565b60006004600083815260200190815260200160002060009054906101000a900473ffffffffffffffffffffffffffffffffffffffff169050919050565b600033905090565b610cbe8383836001611505565b505050565b600080610ccf846114c8565b9050600073ffffffffffffffffffffffffffffffffffffffff168373ffffffffffffffffffffffffffffffffffffffff1614610d1157610d108184866116ca565b5b600073ffffffffffffffffffffffffffffffffffffffff168173ffffffffffffffffffffffffffffffffffffffff1614610da257610d53600085600080611505565b6001600360008373ffffffffffffffffffffffffffffffffffffffff1673ffffffffffffffffffffffffffffffffffffffff168152602001908152602001600020600082825403925050819055505b600073ffffffffffffffffffffffffffffffffffffffff168573ffffffffffffffffffffffffffffffffffffffff1614610e25576001600360008773ffffffffffffffffffffffffffffffffffffffff1673ffffffffffffffffffffffffffffffffffffffff168152602001908152602001600020600082825401925050819055505b846002600086815260200190815260200160002060006101000a81548173ffffffffffffffffffffffffffffffffffffffff021916908373ffffffffffffffffffffffffffffffffffffffff160217905550838573ffffffffffffffffffffffffffffffffffffffff168273ffffffffffffffffffffffffffffffffffffffff167fddf252ad1be2c89b69c2b068fc378daa952ba7f163c4a11628f55a4df523b3ef60405160405180910390a4809150509392505050565b610ee5610ca9565b73ffffffffffffffffffffffffffffffffffffffff16610f036108c2565b73ffffffffffffffffffffffffffffffffffffffff1614610f6257610f26610ca9565b6040517f118cdaa7000000000000000000000000000000000000000000000000000000008152600401610f599190611ce4565b60405180910390fd5b565b610f7e82826040518060200160405280600081525061178e565b5050565b6000600660009054906101000a900473ffffffffffffffffffffffffffffffffffffffff16905081600660006101000a81548173ffffffffffffffffffffffffffffffffffffffff021916908373ffffffffffffffffffffffffffffffffffffffff1602179055508173ffffffffffffffffffffffffffffffffffffffff168173ffffffffffffffffffffffffffffffffffffffff167f8be0079c531659141344cd1fd0a4f28419497f9722a3daafe3b4186f6b6457e060405160405180910390a35050565b600073ffffffffffffffffffffffffffffffffffffffff168273ffffffffffffffffffffffffffffffffffffffff16036110b957816040517f5b08ba180000000000000000000000000000000000000000000000000000000081526004016110b09190611ce4565b60405180910390fd5b80600560008573ffffffffffffffffffffffffffffffffffffffff1673ffffffffffffffffffffffffffffffffffffffff16815260200190815260200160002060008473ffffffffffffffffffffffffffffffffffffffff1673ffffffffffffffffffffffffffffffffffffffff16815260200190815260200160002060006101000a81548160ff0219169083151502179055508173ffffffffffffffffffffffffffffffffffffffff168373ffffffffffffffffffffffffffffffffffffffff167f17307eab39ab6107e8899845ad3d59bd9653f200f220920489ca2b5937696c31836040516111aa9190611b73565b60405180910390a3505050565b60008373ffffffffffffffffffffffffffffffffffffffff163b1115611361578273ffffffffffffffffffffffffffffffffffffffff1663150b7a02868685856040518563ffffffff1660e01b8152600401611216949392919061267e565b6020604051808303816000875af192505050801561125257506040513d601f19601f8201168201806040525081019061124f91906126df565b60015b6112d6573d8060008114611282576040519150601f19603f3d011682016040523d82523d6000602084013e611287565b606091505b5060008151036112ce57836040517f64a0ae920000000000000000000000000000000000000000000000000000000081526004016112c59190611ce4565b60405180910390fd5b805160208201fd5b63150b7a0260e01b7bffffffffffffffffffffffffffffffffffffffffffffffffffffffff1916817bffffffffffffffffffffffffffffffffffffffffffffffffffffffff19161461135f57836040517f64a0ae920000000000000000000000000000000000000000000000000000000081526004016113569190611ce4565b60405180910390fd5b505b5050505050565b6060600880546113779061220b565b80601f01602080910402602001604051908101604052809291908181526020018280546113a39061220b565b80156113f05780601f106113c5576101008083540402835291602001916113f0565b820191906000526020600020905b8154815290600101906020018083116113d357829003601f168201915b5050505050905090565b606060006001611409846117b2565b01905060008167ffffffffffffffff81111561142857611427611fee565b5b6040519080825280601f01601f19166020018201604052801561145a5781602001600182028036833780820191505090505b509050600082602083010190505b6001156114bd578080600190039150507f3031323334353637383961626364656600000000000000000000000000000000600a86061a8153600a85816114b1576114b061270c565b5b04945060008503611468575b819350505050919050565b60006002600083815260200190815260200160002060009054906101000a900473ffffffffffffffffffffffffffffffffffffffff169050919050565b808061153e5750600073ffffffffffffffffffffffffffffffffffffffff168273ffffffffffffffffffffffffffffffffffffffff1614155b1561167257600061154e84610be4565b9050600073ffffffffffffffffffffffffffffffffffffffff168373ffffffffffffffffffffffffffffffffffffffff16141580156115b957508273ffffffffffffffffffffffffffffffffffffffff168173ffffffffffffffffffffffffffffffffffffffff1614155b80156115cc57506115ca8184610a60565b155b1561160e57826040517fa9fbf51f0000000000000000000000000000000000000000000000000000000081526004016116059190611ce4565b60405180910390fd5b811561167057838573ffffffffffffffffffffffffffffffffffffffff168273ffffffffffffffffffffffffffffffffffffffff167f8c5be1e5ebec7d5bd14f71427d1e84f3dd0314c0f7b2291e5b200ac8c7c3b92560405160405180910390a45b505b836004600085815260200190815260200160002060006101000a81548173ffffffffffffffffffffffffffffffffffffffff021916908373ffffffffffffffffffffffffffffffffffffffff16021790555050505050565b6116d5838383611905565b61178957600073ffffffffffffffffffffffffffffffffffffffff168373ffffffffffffffffffffffffffffffffffffffff160361174a57806040517f7e2732890000000000000000000000000000000000000000000000000000000081526004016117419190611e59565b60405180910390fd5b81816040517f177e802f00000000000000000000000000000000000000000000000000000000815260040161178092919061273b565b60405180910390fd5b505050565b61179883836119c6565b6117ad6117a3610ca9565b60008585856111b7565b505050565b600080600090507a184f03e93ff9f4daa797ed6e38ed64bf6a1f0100000000000000008310611810577a184f03e93ff9f4daa797ed6e38ed64bf6a1f01000000000000000083816118065761180561270c565b5b0492506040810190505b6d04ee2d6d415b85acef8100000000831061184d576d04ee2d6d415b85acef810000000083816118435761184261270c565b5b0492506020810190505b662386f26fc10000831061187c57662386f26fc1000083816118725761187161270c565b5b0492506010810190505b6305f5e10083106118a5576305f5e100838161189b5761189a61270c565b5b0492506008810190505b61271083106118ca5761271083816118c0576118bf61270c565b5b0492506004810190505b606483106118ed57606483816118e3576118e261270c565b5b0492506002810190505b600a83106118fc576001810190505b80915050919050565b60008073ffffffffffffffffffffffffffffffffffffffff168373ffffffffffffffffffffffffffffffffffffffff16141580156119bd57508273ffffffffffffffffffffffffffffffffffffffff168473ffffffffffffffffffffffffffffffffffffffff16148061197e575061197d8484610a60565b5b806119bc57508273ffffffffffffffffffffffffffffffffffffffff166119a483610c6c565b73ffffffffffffffffffffffffffffffffffffffff16145b5b90509392505050565b600073ffffffffffffffffffffffffffffffffffffffff168273ffffffffffffffffffffffffffffffffffffffff1603611a385760006040517f64a0ae92000000000000000000000000000000000000000000000000000000008152600401611a2f9190611ce4565b60405180910390fd5b6000611a4683836000610cc3565b9050600073ffffffffffffffffffffffffffffffffffffffff168173ffffffffffffffffffffffffffffffffffffffff1614611aba5760006040517f73c6ac6e000000000000000000000000000000000000000000000000000000008152600401611ab19190611ce4565b60405180910390fd5b505050565b6000604051905090565b600080fd5b600080fd5b60007fffffffff0000000000000000000000000000000000000000000000000000000082169050919050565b611b0881611ad3565b8114611b1357600080fd5b50565b600081359050611b2581611aff565b92915050565b600060208284031215611b4157611b40611ac9565b5b6000611b4f84828501611b16565b91505092915050565b60008115159050919050565b611b6d81611b58565b82525050565b6000602082019050611b886000830184611b64565b92915050565b600081519050919050565b600082825260208201905092915050565b60005b83811015611bc8578082015181840152602081019050611bad565b60008484015250505050565b6000601f19601f8301169050919050565b6000611bf082611b8e565b611bfa8185611b99565b9350611c0a818560208601611baa565b611c1381611bd4565b840191505092915050565b60006020820190508181036000830152611c388184611be5565b905092915050565b6000819050919050565b611c5381611c40565b8114611c5e57600080fd5b50565b600081359050611c7081611c4a565b92915050565b600060208284031215611c8c57611c8b611ac9565b5b6000611c9a84828501611c61565b91505092915050565b600073ffffffffffffffffffffffffffffffffffffffff82169050919050565b6000611cce82611ca3565b9050919050565b611cde81611cc3565b82525050565b6000602082019050611cf96000830184611cd5565b92915050565b611d0881611cc3565b8114611d1357600080fd5b50565b600081359050611d2581611cff565b92915050565b60008060408385031215611d4257611d41611ac9565b5b6000611d5085828601611d16565b9250506020611d6185828601611c61565b9150509250929050565b600080600060608486031215611d8457611d83611ac9565b5b6000611d9286828701611d16565b9350506020611da386828701611d16565b9250506040611db486828701611c61565b9150509250925092565b600060ff82169050919050565b611dd481611dbe565b8114611ddf57600080fd5b50565b600081359050611df181611dcb565b92915050565b600080600060608486031215611e1057611e0f611ac9565b5b6000611e1e86828701611d16565b9350506020611e2f86828701611c61565b9250506040611e4086828701611de2565b9150509250925092565b611e5381611c40565b82525050565b6000602082019050611e6e6000830184611e4a565b92915050565b600080fd5b600080fd5b600080fd5b60008083601f840112611e9957611e98611e74565b5b8235905067ffffffffffffffff811115611eb657611eb5611e79565b5b602083019150836001820283011115611ed257611ed1611e7e565b5b9250929050565b60008060208385031215611ef057611eef611ac9565b5b600083013567ffffffffffffffff811115611f0e57611f0d611ace565b5b611f1a85828601611e83565b92509250509250929050565b600060208284031215611f3c57611f3b611ac9565b5b6000611f4a84828501611d16565b91505092915050565b611f5c81611b58565b8114611f6757600080fd5b50565b600081359050611f7981611f53565b92915050565b60008060408385031215611f9657611f95611ac9565b5b6000611fa485828601611d16565b9250506020611fb585828601611f6a565b9150509250929050565b611fc881611dbe565b82525050565b6000602082019050611fe36000830184611fbf565b92915050565b600080fd5b7f4e487b7100000000000000000000000000000000000000000000000000000000600052604160045260246000fd5b61202682611bd4565b810181811067ffffffffffffffff8211171561204557612044611fee565b5b80604052505050565b6000612058611abf565b9050612064828261201d565b919050565b600067ffffffffffffffff82111561208457612083611fee565b5b61208d82611bd4565b9050602081019050919050565b82818337600083830152505050565b60006120bc6120b784612069565b61204e565b9050828152602081018484840111156120d8576120d7611fe9565b5b6120e384828561209a565b509392505050565b600082601f830112612100576120ff611e74565b5b81356121108482602086016120a9565b91505092915050565b6000806000806080858703121561213357612132611ac9565b5b600061214187828801611d16565b945050602061215287828801611d16565b935050604061216387828801611c61565b925050606085013567ffffffffffffffff81111561218457612183611ace565b5b612190878288016120eb565b91505092959194509250565b600080604083850312156121b3576121b2611ac9565b5b60006121c185828601611d16565b92505060206121d285828601611d16565b9150509250929050565b7f4e487b7100000000000000000000000000000000000000000000000000000000600052602260045260246000fd5b6000600282049050600182168061222357607f821691505b602082108103612236576122356121dc565b5b50919050565b60006060820190506122516000830186611cd5565b61225e6020830185611e4a565b61226b6040830184611cd5565b949350505050565b7f496e76616c696420626164676520747970650000000000000000000000000000600082015250565b60006122a9601283611b99565b91506122b482612273565b602082019050919050565b600060208201905081810360008301526122d88161229c565b9050919050565b7f4e487b7100000000000000000000000000000000000000000000000000000000600052601160045260246000fd5b600061231982611c40565b915061232483611c40565b925082820190508082111561233c5761233b6122df565b5b92915050565b600082905092915050565b60008190508160005260206000209050919050565b60006020601f8301049050919050565b600082821b905092915050565b6000600883026123af7fffffffffffffffffffffffffffffffffffffffffffffffffffffffffffffffff82612372565b6123b98683612372565b95508019841693508086168417925050509392505050565b6000819050919050565b60006123f66123f16123ec84611c40565b6123d1565b611c40565b9050919050565b6000819050919050565b612410836123db565b61242461241c826123fd565b84845461237f565b825550505050565b600090565b61243961242c565b612444818484612407565b505050565b5b818110156124685761245d600082612431565b60018101905061244a565b5050565b601f8211156124ad5761247e8161234d565b61248784612362565b81016020851015612496578190505b6124aa6124a285612362565b830182612449565b50505b505050565b600082821c905092915050565b60006124d0600019846008026124b2565b1980831691505092915050565b60006124e983836124bf565b9150826002028217905092915050565b6125038383612342565b67ffffffffffffffff81111561251c5761251b611fee565b5b612526825461220b565b61253182828561246c565b6000601f831160018114612560576000841561254e578287013590505b61255885826124dd565b8655506125c0565b601f19841661256e8661234d565b60005b8281101561259657848901358255600182019150602085019450602081019050612571565b868310156125b357848901356125af601f8916826124bf565b8355505b6001600288020188555050505b50505050505050565b600081905092915050565b60006125df82611b8e565b6125e981856125c9565b93506125f9818560208601611baa565b80840191505092915050565b600061261182856125d4565b915061261d82846125d4565b91508190509392505050565b600081519050919050565b600082825260208201905092915050565b600061265082612629565b61265a8185612634565b935061266a818560208601611baa565b61267381611bd4565b840191505092915050565b60006080820190506126936000830187611cd5565b6126a06020830186611cd5565b6126ad6040830185611e4a565b81810360608301526126bf8184612645565b905095945050505050565b6000815190506126d981611aff565b92915050565b6000602082840312156126f5576126f4611ac9565b5b6000612703848285016126ca565b91505092915050565b7f4e487b7100000000000000000000000000000000000000000000000000000000600052601260045260246000fd5b60006040820190506127506000830185611cd5565b61275d6020830184611e4a565b939250505056fea2646970667358221220c65b2034cc87fe8c6e1792a2b3dc6edc2fde5d171de39b1827d1e62660ea1ee264736f6c63430008170033",
  "linkReferences": {},
  "deployedLinkReferences": {}
}