{
  "_format": "hh-sol-artifact-1",
  "contractName": "PulseAidCampaign",
  "sourceName": "contracts/PulseAidCampaign.sol",
  "abi": [
    {
      "inputs": [
        {
          "internalType": "address",
          "name": "_badgeAddress",
          "type": "address"
        },
        {
          "internalType": "address",
          "name": "_escrowAddress",
          "type": "address"
        },
        {
          "internalType": "address",
          "name": "initialOwner",
          "type": "address"
        }
      ],
      "stateMutability": "nonpayable",
      "type": "constructor"
    },
    {
      "inputs": [
        {
          "internalType": "address",
          "name": "owner",
          "type": "address"
        }
      ],
      "name": "OwnableInvalidOwner",
      "type": "error"
    },
    {
      "inputs": [
        {
          "internalType": "address",
          "name": "account",
          "type": "address"
        }
      ],
      "name": "OwnableUnauthorizedAccount",
      "type": "error"
    },
    {
      "inputs": [],
      "name": "ReentrancyGuardReentrantCall",
      "type": "error"
    },
    {
      "anonymous": false,
      "inputs": [
        {
          "indexed": false,
          "internalType": "address",
          "name": "to",
          "type": "address"
        },
        {
          "indexed": false,
          "internalType": "uint256",
          "name": "tokenId",
          "type": "uint256"
        },
        {
          "indexed": false,
          "internalType": "uint256",
          "name": "campaignId",
          "type": "uint256"
        },
        {
          "indexed": false,
          "internalType": "uint8",
          "name": "badgeType",
          "type": "uint8"
        }
      ],
      "name": "BadgeMinted",
      "type": "event"
    },
    {
      "anonymous": false,
      "inputs": [
        {
          "indexed": true,
          "internalType": "uint256",
          "name": "id",
          "type": "uint256"
        }
      ],
      "name": "CampaignApproved",
      "type": "event"
    },
    {
      "anonymous": false,
      "inputs": [
        {
          "indexed": true,
          "internalType": "uint256",
          "name": "id",
          "type": "uint256"
        },
        {
          "indexed": false,
          "internalType": "address",
          "name": "beneficiary",
          "type": "address"
        },
        {
          "indexed": false,
          "internalType": "uint256",
          "name": "goal",
          "type": "uint256"
        },
        {
          "indexed": false,
          "internalType": "enum PulseAidCampaign.Mode",
          "name": "mode",
          "type": "uint8"
        }
      ],
      "name": "CampaignCreated",
      "type": "event"
    },
    {
      "anonymous": false,
      "inputs": [
        {
          "indexed": true,
          "internalType": "uint256",
          "name": "id",
          "type": "uint256"
        },
        {
          "indexed": false,
          "internalType": "address",
          "name": "donor",
          "type": "address"
        },
        {
          "indexed": false,
          "internalType": "uint256",
          "name": "amount",
          "type": "uint256"
        }
      ],
      "name": "Donated",
      "type": "event"
    },
    {
      "anonymous": false,
      "inputs": [
        {
          "indexed": true,
          "internalType": "uint256",
          "name": "id",
          "type": "uint256"
        },
        {
          "indexed": false,
          "internalType": "uint256",
          "name": "amount",
          "type": "uint256"
        }
      ],
      "name": "FundsReleased",
      "type": "event"
    },
    {
      "anonymous": false,
      "inputs": [
        {
          "indexed": true,
          "internalType": "address",
          "name": "previousOwner",
          "type": "address"
        },
        {
          "indexed": true,
          "internalType": "address",
          "name": "newOwner",
          "type": "address"
        }
      ],
      "name": "OwnershipTransferred",
      "type": "event"
    },
    {
      "anonymous": false,
      "inputs": [
        {
          "indexed": true,
          "internalType": "uint256",
          "name": "id",
          "type": "uint256"
        },
        {
          "indexed": false,
          "internalType": "string",
          "name": "proofCid",
          "type": "string"
        }
      ],
      "name": "ProofSubmitted",
      "type": "event"
    },
    {
      "anonymous": false,
      "inputs": [
        {
          "indexed": true,
          "internalType": "uint256",
          "name": "id",
          "type": "uint256"
        },
        {
          "indexed": false,
          "internalType": "address",
          "name": "donor",
          "type": "address"
        },
        {
          "indexed": false,
          "internalType": "uint256",
          "name": "amount",
          "type": "uint256"
        }
      ],
      "name": "Refunded",
      "type": "event"
    },
    {
      "inputs": [
        {
          "internalType": "uint256",
          "name": "id",
          "type": "uint256"
        }
      ],
      "name": "approveCampaign",
      "outputs": [],
      "stateMutability": "nonpayable",
      "type": "function"
    },
    {
      "inputs": [],
      "name": "badgeContract",
      "outputs": [
        {
          "internalType": "contract PulseAidBadge",
          "name": "",
          "type": "address"
        }
      ],
      "stateMutability": "view",
      "type": "function"
    },
    {
      "inputs": [],
      "name": "campaignCount",
      "outputs": [
        {
          "internalType": "uint256",
          "name": "",
          "type": "uint256"
        }
      ],
      "stateMutability": "view",
      "type": "function"
    },
    {
      "inputs": [
        {
          "internalType": "uint256",
          "name": "",
          "type": "uint256"
        }
      ],
      "name": "campaigns",
      "outputs": [
        {
          "internalType": "address payable",
          "name": "beneficiary",
          "type": "address"
        },
        {
          "internalType": "string",
          "name": "ipfsMetadata",
          "type": "string"
        },
        {
          "internalType": "uint256",
          "name": "goal",
          "type": "uint256"
        },
        {
          "internalType": "uint256",
          "name": "raised",
          "type": "uint256"
        },
        {
          "internalType": "uint256",
          "name": "deadline",
          "type": "uint256"
        },
        {
          "internalType": "enum PulseAidCampaign.Mode",
          "name": "mode",
          "type": "uint8"
        },
        {
          "internalType": "bool",
          "name": "active",
          "type": "bool"
        },
        {
          "internalType": "bool",
          "name": "approved",
          "type": "bool"
        }
      ],
      "stateMutability": "view",
      "type": "function"
    },
    {
      "inputs": [
        {
          "internalType": "string",
          "name": "ipfsMetadata",
          "type": "string"
        },
        {
          "internalType": "uint256",
          "name": "goal",
          "type": "uint256"
        },
        {
          "internalType": "enum PulseAidCampaign.Mode",
          "name": "mode",
          "type": "uint8"
        },
        {
          "internalType": "uint256",
          "name": "deadline",
          "type": "uint256"
        }
      ],
      "name": "createCampaign",
      "outputs": [],
      "stateMutability": "nonpayable",
      "type": "function"
    },
    {
      "inputs": [
        {
          "internalType": "uint256",
          "name": "id",
          "type": "uint256"
        }
      ],
      "name": "donate",
      "outputs": [],
      "stateMutability": "payable",
      "type": "function"
    },
    {
      "inputs": [],
      "name": "escrowHelper",
      "outputs": [
        {
          "internalType": "contract PulseAidEscrowHelper",
          "name": "",
          "type": "address"
        }
      ],
      "stateMutability": "view",
      "type": "function"
    },
    {
      "inputs": [
        {
          "internalType": "uint256",
          "name": "id",
          "type": "uint256"
        }
      ],
      "name": "finalizeCampaign",
      "outputs": [],
      "stateMutability": "nonpayable",
      "type": "function"
    },
    {
      "inputs": [
        {
          "internalType": "uint256",
          "name": "id",
          "type": "uint256"
        }
      ],
      "name": "getWithdrawableAmount",
      "outputs": [
        {
          "internalType": "uint256",
          "name": "",
          "type": "uint256"
        }
      ],
      "stateMutability": "view",
      "type": "function"
    },
    {
      "inputs": [
        {
          "internalType": "address",
          "name": "donor",
          "type": "address"
        },
        {
          "internalType": "uint256",
          "name": "campaignId",
          "type": "uint256"
        },
        {
          "internalType": "uint8",
          "name": "badgeType",
          "type": "uint8"
        }
      ],
      "name": "mintBadgeForDonor",
      "outputs": [],
      "stateMutability": "nonpayable",
      "type": "function"
    },
    {
      "inputs": [],
      "name": "owner",
      "outputs": [
        {
          "internalType": "address",
          "name": "",
          "type": "address"
        }
      ],
      "stateMutability": "view",
      "type": "function"
    },
    {
      "inputs": [],
      "name": "renounceOwnership",
      "outputs": [],
      "stateMutability": "nonpayable",
      "type": "function"
    },
    {
      "inputs": [
        {
          "internalType": "uint256",
          "name": "id",
          "type": "uint256"
        },
        {
          "internalType": "string",
          "name": "proofCid",
          "type": "string"
        }
      ],
      "name": "submitProof",
      "outputs": [],
      "stateMutability": "nonpayable",
      "type": "function"
    },
    {
      "inputs": [
        {
          "internalType": "address",
          "name": "newOwner",
          "type": "address"
        }
      ],
      "name": "transferOwnership",
      "outputs": [],
      "stateMutability": "nonpayable",
      "type": "function"
    },
    {
      "inputs": [
        {
          "internalType": "uint256",
          "name": "id",
          "type": "uint256"
        }
      ],
      "name": "withdrawFunds",
      "outputs": [],
      "stateMutability": "nonpayable",
      "type": "function"
    },
    {
      "stateMutability": "payable",
      "type": "receive"
    }
  ],
  "bytecode": "0x60806040523480156200001157600080fd5b50604051620029183803806200291883398181016040528101906200003791906200027f565b80600073ffffffffffffffffffffffffffffffffffffffff168173ffffffffffffffffffffffffffffffffffffffff1603620000ad5760006040517f1e4fbdf7000000000000000000000000000000000000000000000000000000008152600401620000a49190620002ec565b60405180910390fd5b620000be816200015160201b60201c565b506001808190555082600460006101000a81548173ffffffffffffffffffffffffffffffffffffffff021916908373ffffffffffffffffffffffffffffffffffffffff16021790555081600560006101000a81548173ffffffffffffffffffffffffffffffffffffffff021916908373ffffffffffffffffffffffffffffffffffffffff16021790555050505062000309565b60008060009054906101000a900473ffffffffffffffffffffffffffffffffffffffff169050816000806101000a81548173ffffffffffffffffffffffffffffffffffffffff021916908373ffffffffffffffffffffffffffffffffffffffff1602179055508173ffffffffffffffffffffffffffffffffffffffff168173ffffffffffffffffffffffffffffffffffffffff167f8be0079c531659141344cd1fd0a4f28419497f9722a3daafe3b4186f6b6457e060405160405180910390a35050565b600080fd5b600073ffffffffffffffffffffffffffffffffffffffff82169050919050565b600062000247826200021a565b9050919050565b62000259816200023a565b81146200026557600080fd5b50565b60008151905062000279816200024e565b92915050565b6000806000606084860312156200029b576200029a62000215565b5b6000620002ab8682870162000268565b9350506020620002be8682870162000268565b9250506040620002d18682870162000268565b9150509250925092565b620002e6816200023a565b82525050565b6000602082019050620003036000830184620002db565b92915050565b6125ff80620003196000396000f3fe6080604052600436106100ec5760003560e01c80637274e30d1161008a578063bf725eed11610059578063bf725eed146102e0578063ee4e1b5314610309578063f14faf6f14610332578063f2fde38b1461034e576100f3565b80637274e30d14610222578063875f43841461024d5780638d6d49251461028a5780638da5cb5b146102b5576100f3565b806330dffe70116100c657806330dffe701461018e5780635e63de1a146101b95780636b5ca27d146101e2578063715018a61461020b576100f3565b8063141961bc146100f8578063155dd5ee1461013c5780632af0051014610165576100f3565b366100f357005b600080fd5b34801561010457600080fd5b5061011f600480360381019061011a9190611599565b610377565b604051610133989796959493929190611738565b60405180910390f35b34801561014857600080fd5b50610163600480360381019061015e9190611599565b61048e565b005b34801561017157600080fd5b5061018c60048036038101906101879190611822565b61073f565b005b34801561019a57600080fd5b506101a3610828565b6040516101b091906118e1565b60405180910390f35b3480156101c557600080fd5b506101e060048036038101906101db9190611921565b61084e565b005b3480156101ee57600080fd5b5061020960048036038101906102049190611599565b610a9d565b005b34801561021757600080fd5b50610220610c11565b005b34801561022e57600080fd5b50610237610c25565b60405161024491906119a9565b60405180910390f35b34801561025957600080fd5b50610274600480360381019061026f9190611599565b610c2b565b60405161028191906119a9565b60405180910390f35b34801561029657600080fd5b5061029f610ce5565b6040516102ac91906119e5565b60405180910390f35b3480156102c157600080fd5b506102ca610d0b565b6040516102d79190611a21565b60405180910390f35b3480156102ec57600080fd5b5061030760048036038101906103029190611aa1565b610d34565b005b34801561031557600080fd5b50610330600480360381019061032b9190611599565b610e25565b005b61034c60048036038101906103479190611599565b610f47565b005b34801561035a57600080fd5b5061037560048036038101906103709190611af4565b611183565b005b60026020528060005260406000206000915090508060000160009054906101000a900473ffffffffffffffffffffffffffffffffffffffff16908060010180546103c090611b50565b80601f01602080910402602001604051908101604052809291908181526020018280546103ec90611b50565b80156104395780601f1061040e57610100808354040283529160200191610439565b820191906000526020600020905b81548152906001019060200180831161041c57829003601f168201915b5050505050908060020154908060030154908060040154908060050160009054906101000a900460ff16908060050160019054906101000a900460ff16908060050160029054906101000a900460ff16905088565b610496611209565b60006002600083815260200190815260200160002090508060000160009054906101000a900473ffffffffffffffffffffffffffffffffffffffff1673ffffffffffffffffffffffffffffffffffffffff163373ffffffffffffffffffffffffffffffffffffffff161461053f576040517f08c379a000000000000000000000000000000000000000000000000000000000815260040161053690611bcd565b60405180910390fd5b8060050160029054906101000a900460ff16610590576040517f08c379a000000000000000000000000000000000000000000000000000000000815260040161058790611c39565b60405180910390fd5b60008160030154116105d7576040517f08c379a00000000000000000000000000000000000000000000000000000000081526004016105ce90611ca5565b60405180910390fd5b6001808111156105ea576105e96116a6565b5b8160050160009054906101000a900460ff16600181111561060e5761060d6116a6565b5b0361065f5780600201548160030154101561065e576040517f08c379a000000000000000000000000000000000000000000000000000000000815260040161065590611d11565b60405180910390fd5b5b6000816003015490506000826003018190555060008260050160016101000a81548160ff0219169083151502179055508160000160009054906101000a900473ffffffffffffffffffffffffffffffffffffffff1673ffffffffffffffffffffffffffffffffffffffff166108fc829081150290604051600060405180830381858888f193505050501580156106f9573d6000803e3d6000fd5b50827f80230996023d69b50793fa73f1919127c9d8e741d3989743c479169f22e7a2888260405161072a91906119a9565b60405180910390a2505061073c61124f565b50565b60006002600085815260200190815260200160002090508060000160009054906101000a900473ffffffffffffffffffffffffffffffffffffffff1673ffffffffffffffffffffffffffffffffffffffff163373ffffffffffffffffffffffffffffffffffffffff16146107e8576040517f08c379a00000000000000000000000000000000000000000000000000000000081526004016107df90611da3565b60405180910390fd5b837fc577bdeb8da1059fec56a8d1554e25846f18ebf046c214b145cac25f76bda350848460405161081a929190611dff565b60405180910390a250505050565b600560009054906101000a900473ffffffffffffffffffffffffffffffffffffffff1681565b428111610890576040517f08c379a000000000000000000000000000000000000000000000000000000000815260040161088790611e6f565b60405180910390fd5b600360008154809291906108a390611ebe565b91905055506040518061010001604052803373ffffffffffffffffffffffffffffffffffffffff16815260200186868080601f016020809104026020016040519081016040528093929190818152602001838380828437600081840152601f19601f820116905080830192505050505050508152602001848152602001600081526020018281526020018360018111156109405761093f6116a6565b5b81526020016000151581526020016000151581525060026000600354815260200190815260200160002060008201518160000160006101000a81548173ffffffffffffffffffffffffffffffffffffffff021916908373ffffffffffffffffffffffffffffffffffffffff16021790555060208201518160010190816109c691906120d7565b5060408201518160020155606082015181600301556080820151816004015560a08201518160050160006101000a81548160ff02191690836001811115610a1057610a0f6116a6565b5b021790555060c08201518160050160016101000a81548160ff02191690831515021790555060e08201518160050160026101000a81548160ff0219169083151502179055509050506003547f5e29f67338b610c54a2881077618532475625668eab291954c30fc9327e51029338585604051610a8e939291906121a9565b60405180910390a25050505050565b610aa5611258565b60006002600083815260200190815260200160002090508060050160029054906101000a900460ff16610b0d576040517f08c379a0000000000000000000000000000000000000000000000000000000008152600401610b0490611c39565b60405180910390fd5b8060050160019054906101000a900460ff16610b5e576040517f08c379a0000000000000000000000000000000000000000000000000000000008152600401610b559061222c565b60405180910390fd5b8060040154421015610ba5576040517f08c379a0000000000000000000000000000000000000000000000000000000008152600401610b9c90612298565b60405180910390fd5b600180811115610bb857610bb76116a6565b5b8160050160009054906101000a900460ff166001811115610bdc57610bdb6116a6565b5b148015610bf0575080600201548160030154105b15610c0357610bfe826112df565b610c0d565b610c0c8261139e565b5b5050565b610c19611258565b610c23600061148d565b565b60035481565b6000806002600084815260200190815260200160002090508060050160029054906101000a900460ff161580610c65575060008160030154145b15610c74576000915050610ce0565b60006001811115610c8857610c876116a6565b5b8160050160009054906101000a900460ff166001811115610cac57610cab6116a6565b5b03610cbe578060030154915050610ce0565b8060020154816003015410610cda578060030154915050610ce0565b60009150505b919050565b600460009054906101000a900473ffffffffffffffffffffffffffffffffffffffff1681565b60008060009054906101000a900473ffffffffffffffffffffffffffffffffffffffff16905090565b610d3c611258565b6000600460009054906101000a900473ffffffffffffffffffffffffffffffffffffffff1673ffffffffffffffffffffffffffffffffffffffff1663505d930c8585856040518463ffffffff1660e01b8152600401610d9d939291906122c7565b6020604051808303816000875af1158015610dbc573d6000803e3d6000fd5b505050506040513d601f19601f82011682018060405250810190610de09190612313565b90507f93b1e9646f0e913eacdc0b1d453cf0a623fa7b9cdd127a3a2ae20423bb34b28884828585604051610e179493929190612340565b60405180910390a150505050565b610e2d611258565b60006002600083815260200190815260200160002090508060050160029054906101000a900460ff1615610e96576040517f08c379a0000000000000000000000000000000000000000000000000000000008152600401610e8d906123d1565b60405180910390fd5b80600401544210610edc576040517f08c379a0000000000000000000000000000000000000000000000000000000008152600401610ed39061243d565b60405180910390fd5b60018160050160026101000a81548160ff02191690831515021790555060018160050160016101000a81548160ff021916908315150217905550817f3aa476b7499359259e68e236e4ba85f83ff093e3b6341e6a3f6f295d9cd6887760405160405180910390a25050565b610f4f611209565b60006002600083815260200190815260200160002090508060050160019054906101000a900460ff16610fb7576040517f08c379a0000000000000000000000000000000000000000000000000000000008152600401610fae9061222c565b60405180910390fd5b8060050160029054906101000a900460ff16611008576040517f08c379a0000000000000000000000000000000000000000000000000000000008152600401610fff906124a9565b60405180910390fd5b8060040154421061104e576040517f08c379a00000000000000000000000000000000000000000000000000000000081526004016110459061243d565b60405180910390fd5b60003411611091576040517f08c379a000000000000000000000000000000000000000000000000000000000815260040161108890612515565b60405180910390fd5b348160030160008282546110a59190612535565b92505081905550600560009054906101000a900473ffffffffffffffffffffffffffffffffffffffff1673ffffffffffffffffffffffffffffffffffffffff16632dc34c7a8333346040518463ffffffff1660e01b815260040161110b93929190612569565b600060405180830381600087803b15801561112557600080fd5b505af1158015611139573d6000803e3d6000fd5b50505050817f1b606d34afacd55873aba0fd274841a10c63e18455f2dffebad2fc60a36b2c83333460405161116f9291906125a0565b60405180910390a25061118061124f565b50565b61118b611258565b600073ffffffffffffffffffffffffffffffffffffffff168173ffffffffffffffffffffffffffffffffffffffff16036111fd5760006040517f1e4fbdf70000000000000000000000000000000000000000000000000000000081526004016111f49190611a21565b60405180910390fd5b6112068161148d565b50565b600260015403611245576040517f3ee5aeb500000000000000000000000000000000000000000000000000000000815260040160405180910390fd5b6002600181905550565b60018081905550565b611260611551565b73ffffffffffffffffffffffffffffffffffffffff1661127e610d0b565b73ffffffffffffffffffffffffffffffffffffffff16146112dd576112a1611551565b6040517f118cdaa70000000000000000000000000000000000000000000000000000000081526004016112d49190611a21565b60405180910390fd5b565b600560009054906101000a900473ffffffffffffffffffffffffffffffffffffffff1673ffffffffffffffffffffffffffffffffffffffff1663c6f56901826040518263ffffffff1660e01b815260040161133a91906119a9565b600060405180830381600087803b15801561135457600080fd5b505af1158015611368573d6000803e3d6000fd5b5050505060006002600083815260200190815260200160002060050160016101000a81548160ff02191690831515021790555050565b60006002600083815260200190815260200160002090506000816003015490506000826003018190555060008260050160016101000a81548160ff0219169083151502179055508160000160009054906101000a900473ffffffffffffffffffffffffffffffffffffffff1673ffffffffffffffffffffffffffffffffffffffff166108fc829081150290604051600060405180830381858888f1935050505015801561144f573d6000803e3d6000fd5b50827f80230996023d69b50793fa73f1919127c9d8e741d3989743c479169f22e7a2888260405161148091906119a9565b60405180910390a2505050565b60008060009054906101000a900473ffffffffffffffffffffffffffffffffffffffff169050816000806101000a81548173ffffffffffffffffffffffffffffffffffffffff021916908373ffffffffffffffffffffffffffffffffffffffff1602179055508173ffffffffffffffffffffffffffffffffffffffff168173ffffffffffffffffffffffffffffffffffffffff167f8be0079c531659141344cd1fd0a4f28419497f9722a3daafe3b4186f6b6457e060405160405180910390a35050565b600033905090565b600080fd5b600080fd5b6000819050919050565b61157681611563565b811461158157600080fd5b50565b6000813590506115938161156d565b92915050565b6000602082840312156115af576115ae611559565b5b60006115bd84828501611584565b91505092915050565b600073ffffffffffffffffffffffffffffffffffffffff82169050919050565b60006115f1826115c6565b9050919050565b611601816115e6565b82525050565b600081519050919050565b600082825260208201905092915050565b60005b83811015611641578082015181840152602081019050611626565b60008484015250505050565b6000601f19601f8301169050919050565b600061166982611607565b6116738185611612565b9350611683818560208601611623565b61168c8161164d565b840191505092915050565b6116a081611563565b82525050565b7f4e487b7100000000000000000000000000000000000000000000000000000000600052602160045260246000fd5b600281106116e6576116e56116a6565b5b50565b60008190506116f7826116d5565b919050565b6000611707826116e9565b9050919050565b611717816116fc565b82525050565b60008115159050919050565b6117328161171d565b82525050565b60006101008201905061174e600083018b6115f8565b8181036020830152611760818a61165e565b905061176f6040830189611697565b61177c6060830188611697565b6117896080830187611697565b61179660a083018661170e565b6117a360c0830185611729565b6117b060e0830184611729565b9998505050505050505050565b600080fd5b600080fd5b600080fd5b60008083601f8401126117e2576117e16117bd565b5b8235905067ffffffffffffffff8111156117ff576117fe6117c2565b5b60208301915083600182028301111561181b5761181a6117c7565b5b9250929050565b60008060006040848603121561183b5761183a611559565b5b600061184986828701611584565b935050602084013567ffffffffffffffff81111561186a5761186961155e565b5b611876868287016117cc565b92509250509250925092565b6000819050919050565b60006118a76118a261189d846115c6565b611882565b6115c6565b9050919050565b60006118b98261188c565b9050919050565b60006118cb826118ae565b9050919050565b6118db816118c0565b82525050565b60006020820190506118f660008301846118d2565b92915050565b6002811061190957600080fd5b50565b60008135905061191b816118fc565b92915050565b60008060008060006080868803121561193d5761193c611559565b5b600086013567ffffffffffffffff81111561195b5761195a61155e565b5b611967888289016117cc565b9550955050602061197a88828901611584565b935050604061198b8882890161190c565b925050606061199c88828901611584565b9150509295509295909350565b60006020820190506119be6000830184611697565b92915050565b60006119cf826118ae565b9050919050565b6119df816119c4565b82525050565b60006020820190506119fa60008301846119d6565b92915050565b6000611a0b826115c6565b9050919050565b611a1b81611a00565b82525050565b6000602082019050611a366000830184611a12565b92915050565b611a4581611a00565b8114611a5057600080fd5b50565b600081359050611a6281611a3c565b92915050565b600060ff82169050919050565b611a7e81611a68565b8114611a8957600080fd5b50565b600081359050611a9b81611a75565b92915050565b600080600060608486031215611aba57611ab9611559565b5b6000611ac886828701611a53565b9350506020611ad986828701611584565b9250506040611aea86828701611a8c565b9150509250925092565b600060208284031215611b0a57611b09611559565b5b6000611b1884828501611a53565b91505092915050565b7f4e487b7100000000000000000000000000000000000000000000000000000000600052602260045260246000fd5b60006002820490506001821680611b6857607f821691505b602082108103611b7b57611b7a611b21565b5b50919050565b7f4f6e6c792062656e65666963696172792063616e207769746864726177000000600082015250565b6000611bb7601d83611612565b9150611bc282611b81565b602082019050919050565b60006020820190508181036000830152611be681611baa565b9050919050565b7f43616d706169676e206e6f7420617070726f7665640000000000000000000000600082015250565b6000611c23601583611612565b9150611c2e82611bed565b602082019050919050565b60006020820190508181036000830152611c5281611c16565b9050919050565b7f4e6f2066756e647320746f207769746864726177000000000000000000000000600082015250565b6000611c8f601483611612565b9150611c9a82611c59565b602082019050919050565b60006020820190508181036000830152611cbe81611c82565b9050919050565b7f457363726f773a20476f616c206e6f7420726561636865640000000000000000600082015250565b6000611cfb601883611612565b9150611d0682611cc5565b602082019050919050565b60006020820190508181036000830152611d2a81611cee565b9050919050565b7f4f6e6c792062656e65666963696172792063616e207375626d69742070726f6f60008201527f6600000000000000000000000000000000000000000000000000000000000000602082015250565b6000611d8d602183611612565b9150611d9882611d31565b604082019050919050565b60006020820190508181036000830152611dbc81611d80565b9050919050565b82818337600083830152505050565b6000611dde8385611612565b9350611deb838584611dc3565b611df48361164d565b840190509392505050565b60006020820190508181036000830152611e1a818486611dd2565b90509392505050565b7f446561646c696e65206d75737420626520696e20667574757265000000000000600082015250565b6000611e59601a83611612565b9150611e6482611e23565b602082019050919050565b60006020820190508181036000830152611e8881611e4c565b9050919050565b7f4e487b7100000000000000000000000000000000000000000000000000000000600052601160045260246000fd5b6000611ec982611563565b91507fffffffffffffffffffffffffffffffffffffffffffffffffffffffffffffffff8203611efb57611efa611e8f565b5b600182019050919050565b7f4e487b7100000000000000000000000000000000000000000000000000000000600052604160045260246000fd5b60008190508160005260206000209050919050565b60006020601f8301049050919050565b600082821b905092915050565b600060088302611f977fffffffffffffffffffffffffffffffffffffffffffffffffffffffffffffffff82611f5a565b611fa18683611f5a565b95508019841693508086168417925050509392505050565b6000611fd4611fcf611fca84611563565b611882565b611563565b9050919050565b6000819050919050565b611fee83611fb9565b612002611ffa82611fdb565b848454611f67565b825550505050565b600090565b61201761200a565b612022818484611fe5565b505050565b5b818110156120465761203b60008261200f565b600181019050612028565b5050565b601f82111561208b5761205c81611f35565b61206584611f4a565b81016020851015612074578190505b61208861208085611f4a565b830182612027565b50505b505050565b600082821c905092915050565b60006120ae60001984600802612090565b1980831691505092915050565b60006120c7838361209d565b9150826002028217905092915050565b6120e082611607565b67ffffffffffffffff8111156120f9576120f8611f06565b5b6121038254611b50565b61210e82828561204a565b600060209050601f831160018114612141576000841561212f578287015190505b61213985826120bb565b8655506121a1565b601f19841661214f86611f35565b60005b8281101561217757848901518255600182019150602085019450602081019050612152565b868310156121945784890151612190601f89168261209d565b8355505b6001600288020188555050505b505050505050565b60006060820190506121be6000830186611a12565b6121cb6020830185611697565b6121d8604083018461170e565b949350505050565b7f43616d706169676e20696e616374697665000000000000000000000000000000600082015250565b6000612216601183611612565b9150612221826121e0565b602082019050919050565b6000602082019050818103600083015261224581612209565b9050919050565b7f43616d706169676e206e6f7420656e6465642079657400000000000000000000600082015250565b6000612282601683611612565b915061228d8261224c565b602082019050919050565b600060208201905081810360008301526122b181612275565b9050919050565b6122c181611a68565b82525050565b60006060820190506122dc6000830186611a12565b6122e96020830185611697565b6122f660408301846122b8565b949350505050565b60008151905061230d8161156d565b92915050565b60006020828403121561232957612328611559565b5b6000612337848285016122fe565b91505092915050565b60006080820190506123556000830187611a12565b6123626020830186611697565b61236f6040830185611697565b61237c60608301846122b8565b95945050505050565b7f416c726561647920617070726f76656400000000000000000000000000000000600082015250565b60006123bb601083611612565b91506123c682612385565b602082019050919050565b600060208201905081810360008301526123ea816123ae565b9050919050565b7f43616d706169676e206578706972656400000000000000000000000000000000600082015250565b6000612427601083611612565b9150612432826123f1565b602082019050919050565b600060208201905081810360008301526124568161241a565b9050919050565b7f43616d706169676e206e6f7420617070726f7665642079657400000000000000600082015250565b6000612493601983611612565b915061249e8261245d565b602082019050919050565b600060208201905081810360008301526124c281612486565b9050919050565b7f446f6e6174696f6e206d757374206265203e2030000000000000000000000000600082015250565b60006124ff601483611612565b915061250a826124c9565b602082019050919050565b6000602082019050818103600083015261252e816124f2565b9050919050565b600061254082611563565b915061254b83611563565b925082820190508082111561256357612562611e8f565b5b92915050565b600060608201905061257e6000830186611697565b61258b6020830185611a12565b6125986040830184611697565b949350505050565b60006040820190506125b56000830185611a12565b6125c26020830184611697565b939250505056fea26469706673582212201d390b414738a0e4bbde3f512783fe6d8e867e1a1307bdbff51a5cacfc7fcfdf64736f6c63430008170033",
  "linkReferences": {},
  "deployedLinkReferences": {}
}