{
  "_format": "hh-sol-artifact-1",
  "contractName": "PulseAidEscrowHelper",
  "sourceName": "contracts/PulseAidEscrowHelper.sol",
  "abi": [
    {
      "inputs": [
        {
          "internalType": "address",
          "name": "initialOwner",
          "type": "address"
        }
      ],
      "stateMutability": "nonpayable",
      "type": "constructor"
    },
    {
      "inputs": [
        {
          "internalType": "address",
          "name": "owner",
          "type": "address"
        }
      ],
      "name": "OwnableInvalidOwner",
      "type": "error"
    },
    {
      "inputs": [
        {
          "internalType": "address",
          "name": "account",
          "type": "address"
        }
      ],
      "name": "OwnableUnauthorizedAccount",
      "type": "error"
    },
    {
      "inputs": [],
      "name": "ReentrancyGuardReentrantCall",
      "type": "error"
    },
    {
      "anonymous": false,
      "inputs": [
        {
          "indexed": true,
          "internalType": "uint256",
          "name": "campaignId",
          "type": "uint256"
        },
        {
          "indexed": false,
          "internalType": "address",
          "name": "donor",
          "type": "address"
        },
        {
          "indexed": false,
          "internalType": "uint256",
          "name": "amount",
          "type": "uint256"
        }
      ],
      "name": "ContributionRecorded",
      "type": "event"
    },
    {
      "anonymous": false,
      "inputs": [
        {
          "indexed": true,
          "internalType": "address",
          "name": "previousOwner",
          "type": "address"
        },
        {
          "indexed": true,
          "internalType": "address",
          "name": "newOwner",
          "type": "address"
        }
      ],
      "name": "OwnershipTransferred",
      "type": "event"
    },
    {
      "anonymous": false,
      "inputs": [
        {
          "indexed": true,
          "internalType": "uint256",
          "name": "campaignId",
          "type": "uint256"
        },
        {
          "indexed": false,
          "internalType": "address",
          "name": "donor",
          "type": "address"
        },
        {
          "indexed": false,
          "internalType": "uint256",
          "name": "amount",
          "type": "uint256"
        }
      ],
      "name": "RefundClaimed",
      "type": "event"
    },
    {
      "inputs": [
        {
          "internalType": "uint256",
          "name": "",
          "type": "uint256"
        },
        {
          "internalType": "address",
          "name": "",
          "type": "address"
        }
      ],
      "name": "contributions",
      "outputs": [
        {
          "internalType": "uint256",
          "name": "",
          "type": "uint256"
        }
      ],
      "stateMutability": "view",
      "type": "function"
    },
    {
      "inputs": [],
      "name": "owner",
      "outputs": [
        {
          "internalType": "address",
          "name": "",
          "type": "address"
        }
      ],
      "stateMutability": "view",
      "type": "function"
    },
    {
      "inputs": [
        {
          "internalType": "uint256",
          "name": "campaignId",
          "type": "uint256"
        }
      ],
      "name": "processRefunds",
      "outputs": [],
      "stateMutability": "nonpayable",
      "type": "function"
    },
    {
      "inputs": [
        {
          "internalType": "uint256",
          "name": "campaignId",
          "type": "uint256"
        },
        {
          "internalType": "address",
          "name": "donor",
          "type": "address"
        },
        {
          "internalType": "uint256",
          "name": "amount",
          "type": "uint256"
        }
      ],
      "name": "recordContribution",
      "outputs": [],
      "stateMutability": "nonpayable",
      "type": "function"
    },
    {
      "inputs": [],
      "name": "renounceOwnership",
      "outputs": [],
      "stateMutability": "nonpayable",
      "type": "function"
    },
    {
      "inputs": [
        {
          "internalType": "address",
          "name": "newOwner",
          "type": "address"
        }
      ],
      "name": "transferOwnership",
      "outputs": [],
      "stateMutability": "nonpayable",
      "type": "function"
    },
    {
      "inputs": [
        {
          "internalType": "uint256",
          "name": "campaignId",
          "type": "uint256"
        }
      ],
      "name": "withdrawRefund",
      "outputs": [],
      "stateMutability": "nonpayable",
      "type": "function"
    }
  ],
  "bytecode": "0x60806040523480156200001157600080fd5b5060405162000e4f38038062000e4f8339818101604052810190620000379190620001fb565b80600073ffffffffffffffffffffffffffffffffffffffff168173ffffffffffffffffffffffffffffffffffffffff1603620000ad5760006040517f1e4fbdf7000000000000000000000000000000000000000000000000000000008152600401620000a491906200023e565b60405180910390fd5b620000be81620000cd60201b60201c565b5060018081905550506200025b565b60008060009054906101000a900473ffffffffffffffffffffffffffffffffffffffff169050816000806101000a81548173ffffffffffffffffffffffffffffffffffffffff021916908373ffffffffffffffffffffffffffffffffffffffff1602179055508173ffffffffffffffffffffffffffffffffffffffff168173ffffffffffffffffffffffffffffffffffffffff167f8be0079c531659141344cd1fd0a4f28419497f9722a3daafe3b4186f6b6457e060405160405180910390a35050565b600080fd5b600073ffffffffffffffffffffffffffffffffffffffff82169050919050565b6000620001c38262000196565b9050919050565b620001d581620001b6565b8114620001e157600080fd5b50565b600081519050620001f581620001ca565b92915050565b60006020828403121562000214576200021362000191565b5b60006200022484828501620001e4565b91505092915050565b6200023881620001b6565b82525050565b60006020820190506200025560008301846200022d565b92915050565b610be4806200026b6000396000f3fe608060405234801561001057600080fd5b506004361061007d5760003560e01c80638da5cb5b1161005b5780638da5cb5b146100d85780639d153495146100f6578063c6f5690114610112578063f2fde38b1461012e5761007d565b80632dc34c7a146100825780633d891f591461009e578063715018a6146100ce575b600080fd5b61009c60048036038101906100979190610935565b61014a565b005b6100b860048036038101906100b39190610988565b61026c565b6040516100c591906109d7565b60405180910390f35b6100d6610291565b005b6100e06102a5565b6040516100ed9190610a01565b60405180910390f35b610110600480360381019061010b9190610a1c565b6102ce565b005b61012c60048036038101906101279190610a1c565b610451565b005b61014860048036038101906101439190610a49565b610636565b005b6101526106bc565b806002600085815260200190815260200160002060008473ffffffffffffffffffffffffffffffffffffffff1673ffffffffffffffffffffffffffffffffffffffff16815260200190815260200160002060008282546101b29190610aa5565b9250508190555060036000848152602001908152602001600020829080600181540180825580915050600190039060005260206000200160009091909190916101000a81548173ffffffffffffffffffffffffffffffffffffffff021916908373ffffffffffffffffffffffffffffffffffffffff160217905550827f2c5f82a9faf6394fdf480e4f98a640008a0866046b764eec24d6f88a6a0c2f93838360405161025f929190610ad9565b60405180910390a2505050565b6002602052816000526040600020602052806000526040600020600091509150505481565b6102996106bc565b6102a36000610743565b565b60008060009054906101000a900473ffffffffffffffffffffffffffffffffffffffff16905090565b6102d6610807565b60006002600083815260200190815260200160002060003373ffffffffffffffffffffffffffffffffffffffff1673ffffffffffffffffffffffffffffffffffffffff1681526020019081526020016000205490506000811161036e576040517f08c379a000000000000000000000000000000000000000000000000000000000815260040161036590610b5f565b60405180910390fd5b60006002600084815260200190815260200160002060003373ffffffffffffffffffffffffffffffffffffffff1673ffffffffffffffffffffffffffffffffffffffff168152602001908152602001600020819055503373ffffffffffffffffffffffffffffffffffffffff166108fc829081150290604051600060405180830381858888f1935050505015801561040a573d6000803e3d6000fd5b50817ff3f402280ef0a7905e124aa621b65eaeb2725c343e8b36d398ed78c29daf285c338360405161043d929190610ad9565b60405180910390a25061044e61084d565b50565b6104596106bc565b60005b60036000838152602001908152602001600020805490508110156106135760006003600084815260200190815260200160002082815481106104a1576104a0610b7f565b5b9060005260206000200160009054906101000a900473ffffffffffffffffffffffffffffffffffffffff16905060006002600085815260200190815260200160002060008373ffffffffffffffffffffffffffffffffffffffff1673ffffffffffffffffffffffffffffffffffffffff16815260200190815260200160002054905060008111156106045760006002600086815260200190815260200160002060008473ffffffffffffffffffffffffffffffffffffffff1673ffffffffffffffffffffffffffffffffffffffff168152602001908152602001600020819055508173ffffffffffffffffffffffffffffffffffffffff166108fc829081150290604051600060405180830381858888f193505050501580156105c8573d6000803e3d6000fd5b50837ff3f402280ef0a7905e124aa621b65eaeb2725c343e8b36d398ed78c29daf285c83836040516105fb929190610ad9565b60405180910390a25b5050808060010191505061045c565b50600360008281526020019081526020016000206000610633919061085e565b50565b61063e6106bc565b600073ffffffffffffffffffffffffffffffffffffffff168173ffffffffffffffffffffffffffffffffffffffff16036106b05760006040517f1e4fbdf70000000000000000000000000000000000000000000000000000000081526004016106a79190610a01565b60405180910390fd5b6106b981610743565b50565b6106c4610856565b73ffffffffffffffffffffffffffffffffffffffff166106e26102a5565b73ffffffffffffffffffffffffffffffffffffffff161461074157610705610856565b6040517f118cdaa70000000000000000000000000000000000000000000000000000000081526004016107389190610a01565b60405180910390fd5b565b60008060009054906101000a900473ffffffffffffffffffffffffffffffffffffffff169050816000806101000a81548173ffffffffffffffffffffffffffffffffffffffff021916908373ffffffffffffffffffffffffffffffffffffffff1602179055508173ffffffffffffffffffffffffffffffffffffffff168173ffffffffffffffffffffffffffffffffffffffff167f8be0079c531659141344cd1fd0a4f28419497f9722a3daafe3b4186f6b6457e060405160405180910390a35050565b600260015403610843576040517f3ee5aeb500000000000000000000000000000000000000000000000000000000815260040160405180910390fd5b6002600181905550565b60018081905550565b600033905090565b508054600082559060005260206000209081019061087c919061087f565b50565b5b80821115610898576000816000905550600101610880565b5090565b600080fd5b6000819050919050565b6108b4816108a1565b81146108bf57600080fd5b50565b6000813590506108d1816108ab565b92915050565b600073ffffffffffffffffffffffffffffffffffffffff82169050919050565b6000610902826108d7565b9050919050565b610912816108f7565b811461091d57600080fd5b50565b60008135905061092f81610909565b92915050565b60008060006060848603121561094e5761094d61089c565b5b600061095c868287016108c2565b935050602061096d86828701610920565b925050604061097e868287016108c2565b9150509250925092565b6000806040838503121561099f5761099e61089c565b5b60006109ad858286016108c2565b92505060206109be85828601610920565b9150509250929050565b6109d1816108a1565b82525050565b60006020820190506109ec60008301846109c8565b92915050565b6109fb816108f7565b82525050565b6000602082019050610a1660008301846109f2565b92915050565b600060208284031215610a3257610a3161089c565b5b6000610a40848285016108c2565b91505092915050565b600060208284031215610a5f57610a5e61089c565b5b6000610a6d84828501610920565b91505092915050565b7f4e487b7100000000000000000000000000000000000000000000000000000000600052601160045260246000fd5b6000610ab0826108a1565b9150610abb836108a1565b9250828201905080821115610ad357610ad2610a76565b5b92915050565b6000604082019050610aee60008301856109f2565b610afb60208301846109c8565b9392505050565b600082825260208201905092915050565b7f4e6f20726566756e6420617661696c61626c6500000000000000000000000000600082015250565b6000610b49601383610b02565b9150610b5482610b13565b602082019050919050565b60006020820190508181036000830152610b7881610b3c565b9050919050565b7f4e487b7100000000000000000000000000000000000000000000000000000000600052603260045260246000fdfea2646970667358221220f5478a00e77cd12bacc75c6aed7089f6d03004c415ba76ef3982b542d85a852c64736f6c63430008170033",
  "linkReferences": {},
  "deployedLinkReferences": {}
}